{
  "_format": "hh-sol-artifact-1",
  "contractName": "CollabLearn",
  "sourceName": "contracts/CollabLearn.sol",
  "abi": [
    {
      "inputs": [
        {
          "internalType": "address",
          "name": "_eduToken",
          "type": "address"
        },
        {
          "internalType": "address",
          "name": "_nft",
          "type": "address"
        },
        {
          "internalType": "address",
          "name": "initialOwner",
          "type": "address"
        }
      ],
      "stateMutability": "nonpayable",
      "type": "constructor"
    },
    {
      "inputs": [
        {
          "internalType": "address",
          "name": "owner",
          "type": "address"
        }
      ],
      "name": "OwnableInvalidOwner",
      "type": "error"
    },
    {
      "inputs": [
        {
          "internalType": "address",
          "name": "account",
          "type": "address"
        }
      ],
      "name": "OwnableUnauthorizedAccount",
      "type": "error"
    },
    {
      "inputs": [],
      "name": "ReentrancyGuardReentrantCall",
      "type": "error"
    },
    {
      "anonymous": false,
      "inputs": [
        {
          "indexed": true,
          "internalType": "uint256",
          "name": "researchId",
          "type": "uint256"
        },
        {
          "indexed": false,
          "internalType": "address",
          "name": "contributor",
          "type": "address"
        }
      ],
      "name": "ContributionAccepted",
      "type": "event"
    },
    {
      "anonymous": false,
      "inputs": [
        {
          "indexed": true,
          "internalType": "uint256",
          "name": "researchId",
          "type": "uint256"
        },
        {
          "indexed": false,
          "internalType": "address",
          "name": "contributor",
          "type": "address"
        },
        {
          "indexed": false,
          "internalType": "uint256",
          "name": "stakedAmount",
          "type": "uint256"
        }
      ],
      "name": "ContributionSubmitted",
      "type": "event"
    },
    {
      "anonymous": false,
      "inputs": [
        {
          "indexed": true,
          "internalType": "address",
          "name": "previousOwner",
          "type": "address"
        },
        {
          "indexed": true,
          "internalType": "address",
          "name": "newOwner",
          "type": "address"
        }
      ],
      "name": "OwnershipTransferred",
      "type": "event"
    },
    {
      "anonymous": false,
      "inputs": [
        {
          "indexed": true,
          "internalType": "uint256",
          "name": "id",
          "type": "uint256"
        },
        {
          "indexed": false,
          "internalType": "string",
          "name": "title",
          "type": "string"
        },
        {
          "indexed": false,
          "internalType": "address",
          "name": "owner",
          "type": "address"
        },
        {
          "indexed": false,
          "internalType": "uint256",
          "name": "requiredStake",
          "type": "uint256"
        }
      ],
      "name": "ResearchCreated",
      "type": "event"
    },
    {
      "anonymous": false,
      "inputs": [
        {
          "indexed": true,
          "internalType": "uint256",
          "name": "researchId",
          "type": "uint256"
        },
        {
          "indexed": false,
          "internalType": "address",
          "name": "contributor",
          "type": "address"
        },
        {
          "indexed": false,
          "internalType": "uint256",
          "name": "amount",
          "type": "uint256"
        }
      ],
      "name": "StakeReturned",
      "type": "event"
    },
    {
      "anonymous": false,
      "inputs": [
        {
          "indexed": true,
          "internalType": "uint256",
          "name": "researchId",
          "type": "uint256"
        },
        {
          "indexed": false,
          "internalType": "address",
          "name": "contributor",
          "type": "address"
        },
        {
          "indexed": false,
          "internalType": "uint256",
          "name": "amount",
          "type": "uint256"
        }
      ],
      "name": "StakeSlashed",
      "type": "event"
    },
    {
      "inputs": [],
      "name": "MINIMUM_STAKE",
      "outputs": [
        {
          "internalType": "uint256",
          "name": "",
          "type": "uint256"
        }
      ],
      "stateMutability": "view",
      "type": "function"
    },
    {
      "inputs": [
        {
          "internalType": "uint256",
          "name": "_researchId",
          "type": "uint256"
        },
        {
          "internalType": "uint256",
          "name": "_contributionId",
          "type": "uint256"
        }
      ],
      "name": "acceptContribution",
      "outputs": [],
      "stateMutability": "nonpayable",
      "type": "function"
    },
    {
      "inputs": [
        {
          "internalType": "uint256",
          "name": "amount",
          "type": "uint256"
        }
      ],
      "name": "approveEDUToken",
      "outputs": [
        {
          "internalType": "bool",
          "name": "",
          "type": "bool"
        }
      ],
      "stateMutability": "nonpayable",
      "type": "function"
    },
    {
      "inputs": [
        {
          "internalType": "address",
          "name": "owner",
          "type": "address"
        }
      ],
      "name": "checkAllowance",
      "outputs": [
        {
          "internalType": "uint256",
          "name": "",
          "type": "uint256"
        }
      ],
      "stateMutability": "view",
      "type": "function"
    },
    {
      "inputs": [
        {
          "internalType": "uint256",
          "name": "",
          "type": "uint256"
        },
        {
          "internalType": "uint256",
          "name": "",
          "type": "uint256"
        }
      ],
      "name": "contributions",
      "outputs": [
        {
          "internalType": "address",
          "name": "contributor",
          "type": "address"
        },
        {
          "internalType": "string",
          "name": "ipfsHash",
          "type": "string"
        },
        {
          "internalType": "uint256",
          "name": "timestamp",
          "type": "uint256"
        },
        {
          "internalType": "bool",
          "name": "accepted",
          "type": "bool"
        },
        {
          "internalType": "uint256",
          "name": "votes",
          "type": "uint256"
        },
        {
          "internalType": "uint256",
          "name": "stakedAmount",
          "type": "uint256"
        }
      ],
      "stateMutability": "view",
      "type": "function"
    },
    {
      "inputs": [
        {
          "internalType": "string",
          "name": "_title",
          "type": "string"
        },
        {
          "internalType": "string",
          "name": "_ipfsHash",
          "type": "string"
        },
        {
          "internalType": "uint256",
          "name": "_requiredStake",
          "type": "uint256"
        }
      ],
      "name": "createResearch",
      "outputs": [
        {
          "internalType": "uint256",
          "name": "",
          "type": "uint256"
        }
      ],
      "stateMutability": "nonpayable",
      "type": "function"
    },
    {
      "inputs": [],
      "name": "eduToken",
      "outputs": [
        {
          "internalType": "contract IERC20",
          "name": "",
          "type": "address"
        }
      ],
      "stateMutability": "view",
      "type": "function"
    },
    {
      "inputs": [],
      "name": "nft",
      "outputs": [
        {
          "internalType": "contract ContributionNFT",
          "name": "",
          "type": "address"
        }
      ],
      "stateMutability": "view",
      "type": "function"
    },
    {
      "inputs": [],
      "name": "owner",
      "outputs": [
        {
          "internalType": "address",
          "name": "",
          "type": "address"
        }
      ],
      "stateMutability": "view",
      "type": "function"
    },
    {
      "inputs": [],
      "name": "renounceOwnership",
      "outputs": [],
      "stateMutability": "nonpayable",
      "type": "function"
    },
    {
      "inputs": [
        {
          "internalType": "address",
          "name": "",
          "type": "address"
        }
      ],
      "name": "reputationScores",
      "outputs": [
        {
          "internalType": "uint256",
          "name": "",
          "type": "uint256"
        }
      ],
      "stateMutability": "view",
      "type": "function"
    },
    {
      "inputs": [],
      "name": "researchCount",
      "outputs": [
        {
          "internalType": "uint256",
          "name": "",
          "type": "uint256"
        }
      ],
      "stateMutability": "view",
      "type": "function"
    },
    {
      "inputs": [
        {
          "internalType": "uint256",
          "name": "",
          "type": "uint256"
        }
      ],
      "name": "researches",
      "outputs": [
        {
          "internalType": "string",
          "name": "title",
          "type": "string"
        },
        {
          "internalType": "string",
          "name": "ipfsHash",
          "type": "string"
        },
        {
          "internalType": "address",
          "name": "owner",
          "type": "address"
        },
        {
          "internalType": "bool",
          "name": "isActive",
          "type": "bool"
        },
        {
          "internalType": "uint256",
          "name": "contributorCount",
          "type": "uint256"
        },
        {
          "internalType": "uint256",
          "name": "citationCount",
          "type": "uint256"
        },
        {
          "internalType": "uint256",
          "name": "requiredStake",
          "type": "uint256"
        },
        {
          "internalType": "uint256",
          "name": "currentVersion",
          "type": "uint256"
        }
      ],
      "stateMutability": "view",
      "type": "function"
    },
    {
      "inputs": [
        {
          "internalType": "uint256",
          "name": "_researchId",
          "type": "uint256"
        },
        {
          "internalType": "uint256",
          "name": "_contributionId",
          "type": "uint256"
        }
      ],
      "name": "slashStake",
      "outputs": [],
      "stateMutability": "nonpayable",
      "type": "function"
    },
    {
      "inputs": [
        {
          "internalType": "uint256",
          "name": "_researchId",
          "type": "uint256"
        },
        {
          "internalType": "string",
          "name": "_ipfsHash",
          "type": "string"
        }
      ],
      "name": "submitContribution",
      "outputs": [],
      "stateMutability": "nonpayable",
      "type": "function"
    },
    {
      "inputs": [
        {
          "internalType": "address",
          "name": "newOwner",
          "type": "address"
        }
      ],
      "name": "transferOwnership",
      "outputs": [],
      "stateMutability": "nonpayable",
      "type": "function"
    },
    {
      "inputs": [
        {
          "internalType": "uint256",
          "name": "_researchId",
          "type": "uint256"
        },
        {
          "internalType": "string",
          "name": "_newIpfsHash",
          "type": "string"
        }
      ],
      "name": "updateResearchVersion",
      "outputs": [],
      "stateMutability": "nonpayable",
      "type": "function"
    },
    {
      "inputs": [
        {
          "internalType": "uint256",
          "name": "_researchId",
          "type": "uint256"
        },
        {
          "internalType": "uint256",
          "name": "_contributionId",
          "type": "uint256"
        }
      ],
      "name": "voteOnContribution",
      "outputs": [],
      "stateMutability": "nonpayable",
      "type": "function"
    }
  ],
  "bytecode": "0x60806040523480156200001157600080fd5b5060405162002ddb38038062002ddb83398181016040528101906200003791906200027f565b80600073ffffffffffffffffffffffffffffffffffffffff168173ffffffffffffffffffffffffffffffffffffffff1603620000ad5760006040517f1e4fbdf7000000000000000000000000000000000000000000000000000000008152600401620000a49190620002ec565b60405180910390fd5b620000be816200015160201b60201c565b506001808190555082600260006101000a81548173ffffffffffffffffffffffffffffffffffffffff021916908373ffffffffffffffffffffffffffffffffffffffff16021790555081600360006101000a81548173ffffffffffffffffffffffffffffffffffffffff021916908373ffffffffffffffffffffffffffffffffffffffff16021790555050505062000309565b60008060009054906101000a900473ffffffffffffffffffffffffffffffffffffffff169050816000806101000a81548173ffffffffffffffffffffffffffffffffffffffff021916908373ffffffffffffffffffffffffffffffffffffffff1602179055508173ffffffffffffffffffffffffffffffffffffffff168173ffffffffffffffffffffffffffffffffffffffff167f8be0079c531659141344cd1fd0a4f28419497f9722a3daafe3b4186f6b6457e060405160405180910390a35050565b600080fd5b600073ffffffffffffffffffffffffffffffffffffffff82169050919050565b600062000247826200021a565b9050919050565b62000259816200023a565b81146200026557600080fd5b50565b60008151905062000279816200024e565b92915050565b6000806000606084860312156200029b576200029a62000215565b5b6000620002ab8682870162000268565b9350506020620002be8682870162000268565b9250506040620002d18682870162000268565b9150509250925092565b620002e6816200023a565b82525050565b6000602082019050620003036000830184620002db565b92915050565b612ac280620003196000396000f3fe608060405234801561001057600080fd5b50600436106101165760003560e01c8063830e28f6116100a2578063c29ee39911610071578063c29ee399146102ef578063cf3841af1461030b578063f2fde38b14610327578063fdb6ff8c14610343578063fe0438b21461035f57610116565b8063830e28f6146102625780638d878889146102975780638da5cb5b146102b55780639a4f049a146102d357610116565b80633fa5532d116100e95780633fa5532d146101b557806347ccca02146101e55780635f7d070414610203578063620d744d1461023a578063715018a61461025857610116565b806308dbbb031461011b5780630f963925146101395780631a197a26146101695780632d778a9e14610199575b600080fd5b61012361038f565b6040516101309190611960565b60405180910390f35b610153600480360381019061014e9190611b01565b610399565b6040516101609190611960565b60405180910390f35b610183600480360381019061017e9190611bea565b6104ab565b6040516101909190611960565b60405180910390f35b6101b360048036038101906101ae9190611c17565b610552565b005b6101cf60048036038101906101ca9190611c73565b6108e9565b6040516101dc9190611cbb565b60405180910390f35b6101ed6109d4565b6040516101fa9190611d35565b60405180910390f35b61021d60048036038101906102189190611c73565b6109fa565b604051610231989796959493929190611dde565b60405180910390f35b610242610b7f565b60405161024f9190611960565b60405180910390f35b610260610b85565b005b61027c60048036038101906102779190611e6a565b610b99565b60405161028e96959493929190611eaa565b60405180910390f35b61029f610ca7565b6040516102ac9190611f33565b60405180910390f35b6102bd610ccd565b6040516102ca9190611f4e565b60405180910390f35b6102ed60048036038101906102e89190611e6a565b610cf6565b005b61030960048036038101906103049190611e6a565b610e11565b005b61032560048036038101906103209190611e6a565b61132b565b005b610341600480360381019061033c9190611bea565b611603565b005b61035d60048036038101906103589190611c17565b611689565b005b61037960048036038101906103749190611bea565b61178d565b6040516103869190611960565b60405180910390f35b6509184e72a00081565b600080600760008154809291906103af90611f98565b9190505590506000600460008381526020019081526020016000209050858160000190816103dd91906121e2565b50848160010190816103ef91906121e2565b50338160020160006101000a81548173ffffffffffffffffffffffffffffffffffffffff021916908373ffffffffffffffffffffffffffffffffffffffff16021790555060018160020160146101000a81548160ff02191690831515021790555060018160090181905550838160050181905550817f35e81114e6210529b9d0af61aeb16431219416aa84f82404dbef04080dd59f74873387604051610497939291906122b4565b60405180910390a281925050509392505050565b6000600260009054906101000a900473ffffffffffffffffffffffffffffffffffffffff1673ffffffffffffffffffffffffffffffffffffffff1663dd62ed3e83306040518363ffffffff1660e01b815260040161050a9291906122f2565b602060405180830381865afa158015610527573d6000803e3d6000fd5b505050506040513d601f19601f8201168201806040525081019061054b9190612330565b9050919050565b61055a6117a5565b60006004600084815260200190815260200160002090508060020160149054906101000a900460ff166105c2576040517f08c379a00000000000000000000000000000000000000000000000000000000081526004016105b9906123a9565b60405180910390fd5b8060060160003373ffffffffffffffffffffffffffffffffffffffff1673ffffffffffffffffffffffffffffffffffffffff16815260200190815260200160002060009054906101000a900460ff1615610651576040517f08c379a000000000000000000000000000000000000000000000000000000000815260040161064890612415565b60405180910390fd5b600081600501549050600260009054906101000a900473ffffffffffffffffffffffffffffffffffffffff1673ffffffffffffffffffffffffffffffffffffffff166323b872dd3330846040518463ffffffff1660e01b81526004016106b993929190612435565b6020604051808303816000875af11580156106d8573d6000803e3d6000fd5b505050506040513d601f19601f820116820180604052508101906106fc9190612498565b61073b576040517f08c379a000000000000000000000000000000000000000000000000000000000815260040161073290612511565b60405180910390fd5b808260080160003373ffffffffffffffffffffffffffffffffffffffff1673ffffffffffffffffffffffffffffffffffffffff16815260200190815260200160002081905550600560008581526020019081526020016000206040518060c001604052803373ffffffffffffffffffffffffffffffffffffffff1681526020018581526020014281526020016000151581526020016000815260200183815250908060018154018082558091505060019003906000526020600020906006020160009091909190915060008201518160000160006101000a81548173ffffffffffffffffffffffffffffffffffffffff021916908373ffffffffffffffffffffffffffffffffffffffff160217905550602082015181600101908161086091906121e2565b506040820151816002015560608201518160030160006101000a81548160ff0219169083151502179055506080820151816004015560a082015181600501555050837fea7f3c98b2d3c7432438a2f4b0baa136ff77bf5c6a9171fc7814e185fcc36ec733836040516108d3929190612531565b60405180910390a250506108e56117eb565b5050565b600080821161092d576040517f08c379a0000000000000000000000000000000000000000000000000000000008152600401610924906125a6565b60405180910390fd5b600260009054906101000a900473ffffffffffffffffffffffffffffffffffffffff1673ffffffffffffffffffffffffffffffffffffffff1663095ea7b330846040518363ffffffff1660e01b815260040161098a929190612531565b6020604051808303816000875af11580156109a9573d6000803e3d6000fd5b505050506040513d601f19601f820116820180604052508101906109cd9190612498565b9050919050565b600360009054906101000a900473ffffffffffffffffffffffffffffffffffffffff1681565b6004602052806000526040600020600091509050806000018054610a1d9061200f565b80601f0160208091040260200160405190810160405280929190818152602001828054610a499061200f565b8015610a965780601f10610a6b57610100808354040283529160200191610a96565b820191906000526020600020905b815481529060010190602001808311610a7957829003601f168201915b505050505090806001018054610aab9061200f565b80601f0160208091040260200160405190810160405280929190818152602001828054610ad79061200f565b8015610b245780601f10610af957610100808354040283529160200191610b24565b820191906000526020600020905b815481529060010190602001808311610b0757829003601f168201915b5050505050908060020160009054906101000a900473ffffffffffffffffffffffffffffffffffffffff16908060020160149054906101000a900460ff16908060030154908060040154908060050154908060090154905088565b60075481565b610b8d6117f4565b610b97600061187b565b565b60056020528160005260406000208181548110610bb557600080fd5b9060005260206000209060060201600091509150508060000160009054906101000a900473ffffffffffffffffffffffffffffffffffffffff1690806001018054610bff9061200f565b80601f0160208091040260200160405190810160405280929190818152602001828054610c2b9061200f565b8015610c785780601f10610c4d57610100808354040283529160200191610c78565b820191906000526020600020905b815481529060010190602001808311610c5b57829003601f168201915b5050505050908060020154908060030160009054906101000a900460ff16908060040154908060050154905086565b600260009054906101000a900473ffffffffffffffffffffffffffffffffffffffff1681565b60008060009054906101000a900473ffffffffffffffffffffffffffffffffffffffff16905090565b6000600660003373ffffffffffffffffffffffffffffffffffffffff1673ffffffffffffffffffffffffffffffffffffffff1681526020019081526020016000205411610d78576040517f08c379a0000000000000000000000000000000000000000000000000000000008152600401610d6f90612612565b60405180910390fd5b600560008381526020019081526020016000208181548110610d9d57610d9c612632565b5b90600052602060002090600602016004016000815480929190610dbf90611f98565b91905055506003600560008481526020019081526020016000208281548110610deb57610dea612632565b5b90600052602060002090600602016004015410610e0d57610e0c8282610e11565b5b5050565b610e196117a5565b60006004600084815260200190815260200160002090506000600560008581526020019081526020016000208381548110610e5757610e56612632565b5b906000526020600020906006020190508060030160009054906101000a900460ff1615610eb9576040517f08c379a0000000000000000000000000000000000000000000000000000000008152600401610eb0906126ad565b60405180910390fd5b60018160030160006101000a81548160ff02191690831515021790555060018260060160008360000160009054906101000a900473ffffffffffffffffffffffffffffffffffffffff1673ffffffffffffffffffffffffffffffffffffffff1673ffffffffffffffffffffffffffffffffffffffff16815260200190815260200160002060006101000a81548160ff021916908315150217905550816003016000815480929190610f6990611f98565b919050555060008260080160008360000160009054906101000a900473ffffffffffffffffffffffffffffffffffffffff1673ffffffffffffffffffffffffffffffffffffffff1673ffffffffffffffffffffffffffffffffffffffff16815260200190815260200160002054905060006064600a83610fe991906126cd565b610ff3919061273e565b9050600260009054906101000a900473ffffffffffffffffffffffffffffffffffffffff1673ffffffffffffffffffffffffffffffffffffffff1663a9059cbb8460000160009054906101000a900473ffffffffffffffffffffffffffffffffffffffff168385611064919061276f565b6040518363ffffffff1660e01b8152600401611081929190612531565b6020604051808303816000875af11580156110a0573d6000803e3d6000fd5b505050506040513d601f19601f820116820180604052508101906110c49190612498565b611103576040517f08c379a00000000000000000000000000000000000000000000000000000000081526004016110fa906127ef565b60405180910390fd5b6064600660008560000160009054906101000a900473ffffffffffffffffffffffffffffffffffffffff1673ffffffffffffffffffffffffffffffffffffffff1673ffffffffffffffffffffffffffffffffffffffff1681526020019081526020016000206000828254611177919061276f565b92505081905550600583600401541061125657600360009054906101000a900473ffffffffffffffffffffffffffffffffffffffff1673ffffffffffffffffffffffffffffffffffffffff166340c10f198460000160009054906101000a900473ffffffffffffffffffffffffffffffffffffffff16876103e88a6111fc91906126cd565b611206919061276f565b6040518363ffffffff1660e01b8152600401611223929190612531565b600060405180830381600087803b15801561123d57600080fd5b505af1158015611251573d6000803e3d6000fd5b505050505b857f183c300514091cc04ebfd1f62a97ec10b073e70240d24da7d443deded08ea4a28460000160009054906101000a900473ffffffffffffffffffffffffffffffffffffffff166040516112aa9190611f4e565b60405180910390a2857f0d736493ece6b7d52e34dd028d3d9d0aa75de37339f3da6b3514e70e231ed2a58460000160009054906101000a900473ffffffffffffffffffffffffffffffffffffffff168385611305919061276f565b604051611313929190612531565b60405180910390a2505050506113276117eb565b5050565b6113336117f4565b61133b6117a5565b6000600460008481526020019081526020016000209050600060056000858152602001908152602001600020838154811061137957611378612632565b5b906000526020600020906006020190508060030160009054906101000a900460ff16156113db576040517f08c379a00000000000000000000000000000000000000000000000000000000081526004016113d290612881565b60405180910390fd5b60008260080160008360000160009054906101000a900473ffffffffffffffffffffffffffffffffffffffff1673ffffffffffffffffffffffffffffffffffffffff1673ffffffffffffffffffffffffffffffffffffffff16815260200190815260200160002054905060008360080160008460000160009054906101000a900473ffffffffffffffffffffffffffffffffffffffff1673ffffffffffffffffffffffffffffffffffffffff1673ffffffffffffffffffffffffffffffffffffffff16815260200190815260200160002081905550600260009054906101000a900473ffffffffffffffffffffffffffffffffffffffff1673ffffffffffffffffffffffffffffffffffffffff1663a9059cbb6114f6610ccd565b836040518363ffffffff1660e01b8152600401611514929190612531565b6020604051808303816000875af1158015611533573d6000803e3d6000fd5b505050506040513d601f19601f820116820180604052508101906115579190612498565b611596576040517f08c379a000000000000000000000000000000000000000000000000000000000815260040161158d906128ed565b60405180910390fd5b847fba00be99b4ba100b19f2c080160ab22c2b8f4d62027d6524c532e7578d7a43b48360000160009054906101000a900473ffffffffffffffffffffffffffffffffffffffff16836040516115ec929190612531565b60405180910390a25050506115ff6117eb565b5050565b61160b6117f4565b600073ffffffffffffffffffffffffffffffffffffffff168173ffffffffffffffffffffffffffffffffffffffff160361167d5760006040517f1e4fbdf70000000000000000000000000000000000000000000000000000000081526004016116749190611f4e565b60405180910390fd5b6116868161187b565b50565b60006004600084815260200190815260200160002090508060020160009054906101000a900473ffffffffffffffffffffffffffffffffffffffff1673ffffffffffffffffffffffffffffffffffffffff163373ffffffffffffffffffffffffffffffffffffffff1614611732576040517f08c379a000000000000000000000000000000000000000000000000000000000815260040161172990612959565b60405180910390fd5b8060010181600701600083600901548152602001908152602001600020908161175b91906129a4565b5080600901600081548092919061177190611f98565b91905055508181600101908161178791906121e2565b50505050565b60066020528060005260406000206000915090505481565b6002600154036117e1576040517f3ee5aeb500000000000000000000000000000000000000000000000000000000815260040160405180910390fd5b6002600181905550565b60018081905550565b6117fc61193f565b73ffffffffffffffffffffffffffffffffffffffff1661181a610ccd565b73ffffffffffffffffffffffffffffffffffffffff16146118795761183d61193f565b6040517f118cdaa70000000000000000000000000000000000000000000000000000000081526004016118709190611f4e565b60405180910390fd5b565b60008060009054906101000a900473ffffffffffffffffffffffffffffffffffffffff169050816000806101000a81548173ffffffffffffffffffffffffffffffffffffffff021916908373ffffffffffffffffffffffffffffffffffffffff1602179055508173ffffffffffffffffffffffffffffffffffffffff168173ffffffffffffffffffffffffffffffffffffffff167f8be0079c531659141344cd1fd0a4f28419497f9722a3daafe3b4186f6b6457e060405160405180910390a35050565b600033905090565b6000819050919050565b61195a81611947565b82525050565b60006020820190506119756000830184611951565b92915050565b6000604051905090565b600080fd5b600080fd5b600080fd5b600080fd5b6000601f19601f8301169050919050565b7f4e487b7100000000000000000000000000000000000000000000000000000000600052604160045260246000fd5b6119e282611999565b810181811067ffffffffffffffff82111715611a0157611a006119aa565b5b80604052505050565b6000611a1461197b565b9050611a2082826119d9565b919050565b600067ffffffffffffffff821115611a4057611a3f6119aa565b5b611a4982611999565b9050602081019050919050565b82818337600083830152505050565b6000611a78611a7384611a25565b611a0a565b905082815260208101848484011115611a9457611a93611994565b5b611a9f848285611a56565b509392505050565b600082601f830112611abc57611abb61198f565b5b8135611acc848260208601611a65565b91505092915050565b611ade81611947565b8114611ae957600080fd5b50565b600081359050611afb81611ad5565b92915050565b600080600060608486031215611b1a57611b19611985565b5b600084013567ffffffffffffffff811115611b3857611b3761198a565b5b611b4486828701611aa7565b935050602084013567ffffffffffffffff811115611b6557611b6461198a565b5b611b7186828701611aa7565b9250506040611b8286828701611aec565b9150509250925092565b600073ffffffffffffffffffffffffffffffffffffffff82169050919050565b6000611bb782611b8c565b9050919050565b611bc781611bac565b8114611bd257600080fd5b50565b600081359050611be481611bbe565b92915050565b600060208284031215611c0057611bff611985565b5b6000611c0e84828501611bd5565b91505092915050565b60008060408385031215611c2e57611c2d611985565b5b6000611c3c85828601611aec565b925050602083013567ffffffffffffffff811115611c5d57611c5c61198a565b5b611c6985828601611aa7565b9150509250929050565b600060208284031215611c8957611c88611985565b5b6000611c9784828501611aec565b91505092915050565b60008115159050919050565b611cb581611ca0565b82525050565b6000602082019050611cd06000830184611cac565b92915050565b6000819050919050565b6000611cfb611cf6611cf184611b8c565b611cd6565b611b8c565b9050919050565b6000611d0d82611ce0565b9050919050565b6000611d1f82611d02565b9050919050565b611d2f81611d14565b82525050565b6000602082019050611d4a6000830184611d26565b92915050565b600081519050919050565b600082825260208201905092915050565b60005b83811015611d8a578082015181840152602081019050611d6f565b60008484015250505050565b6000611da182611d50565b611dab8185611d5b565b9350611dbb818560208601611d6c565b611dc481611999565b840191505092915050565b611dd881611bac565b82525050565b6000610100820190508181036000830152611df9818b611d96565b90508181036020830152611e0d818a611d96565b9050611e1c6040830189611dcf565b611e296060830188611cac565b611e366080830187611951565b611e4360a0830186611951565b611e5060c0830185611951565b611e5d60e0830184611951565b9998505050505050505050565b60008060408385031215611e8157611e80611985565b5b6000611e8f85828601611aec565b9250506020611ea085828601611aec565b9150509250929050565b600060c082019050611ebf6000830189611dcf565b8181036020830152611ed18188611d96565b9050611ee06040830187611951565b611eed6060830186611cac565b611efa6080830185611951565b611f0760a0830184611951565b979650505050505050565b6000611f1d82611d02565b9050919050565b611f2d81611f12565b82525050565b6000602082019050611f486000830184611f24565b92915050565b6000602082019050611f636000830184611dcf565b92915050565b7f4e487b7100000000000000000000000000000000000000000000000000000000600052601160045260246000fd5b6000611fa382611947565b91507fffffffffffffffffffffffffffffffffffffffffffffffffffffffffffffffff8203611fd557611fd4611f69565b5b600182019050919050565b7f4e487b7100000000000000000000000000000000000000000000000000000000600052602260045260246000fd5b6000600282049050600182168061202757607f821691505b60208210810361203a57612039611fe0565b5b50919050565b60008190508160005260206000209050919050565b60006020601f8301049050919050565b600082821b905092915050565b6000600883026120a27fffffffffffffffffffffffffffffffffffffffffffffffffffffffffffffffff82612065565b6120ac8683612065565b95508019841693508086168417925050509392505050565b60006120df6120da6120d584611947565b611cd6565b611947565b9050919050565b6000819050919050565b6120f9836120c4565b61210d612105826120e6565b848454612072565b825550505050565b600090565b612122612115565b61212d8184846120f0565b505050565b5b818110156121515761214660008261211a565b600181019050612133565b5050565b601f8211156121965761216781612040565b61217084612055565b8101602085101561217f578190505b61219361218b85612055565b830182612132565b50505b505050565b600082821c905092915050565b60006121b96000198460080261219b565b1980831691505092915050565b60006121d283836121a8565b9150826002028217905092915050565b6121eb82611d50565b67ffffffffffffffff811115612204576122036119aa565b5b61220e825461200f565b612219828285612155565b600060209050601f83116001811461224c576000841561223a578287015190505b61224485826121c6565b8655506122ac565b601f19841661225a86612040565b60005b828110156122825784890151825560018201915060208501945060208101905061225d565b8683101561229f578489015161229b601f8916826121a8565b8355505b6001600288020188555050505b505050505050565b600060608201905081810360008301526122ce8186611d96565b90506122dd6020830185611dcf565b6122ea6040830184611951565b949350505050565b60006040820190506123076000830185611dcf565b6123146020830184611dcf565b9392505050565b60008151905061232a81611ad5565b92915050565b60006020828403121561234657612345611985565b5b60006123548482850161231b565b91505092915050565b7f5265736561726368206e6f742061637469766500000000000000000000000000600082015250565b6000612393601383611d5b565b915061239e8261235d565b602082019050919050565b600060208201905081810360008301526123c281612386565b9050919050565b7f416c726561647920636f6e747269627574656400000000000000000000000000600082015250565b60006123ff601383611d5b565b915061240a826123c9565b602082019050919050565b6000602082019050818103600083015261242e816123f2565b9050919050565b600060608201905061244a6000830186611dcf565b6124576020830185611dcf565b6124646040830184611951565b949350505050565b61247581611ca0565b811461248057600080fd5b50565b6000815190506124928161246c565b92915050565b6000602082840312156124ae576124ad611985565b5b60006124bc84828501612483565b91505092915050565b7f5374616b65207472616e73666572206661696c65640000000000000000000000600082015250565b60006124fb601583611d5b565b9150612506826124c5565b602082019050919050565b6000602082019050818103600083015261252a816124ee565b9050919050565b60006040820190506125466000830185611dcf565b6125536020830184611951565b9392505050565b7f416d6f756e74206d7573742062652067726561746572207468616e2030000000600082015250565b6000612590601d83611d5b565b915061259b8261255a565b602082019050919050565b600060208201905081810360008301526125bf81612583565b9050919050565b7f4e6f2072657075746174696f6e20746f20766f74650000000000000000000000600082015250565b60006125fc601583611d5b565b9150612607826125c6565b602082019050919050565b6000602082019050818103600083015261262b816125ef565b9050919050565b7f4e487b7100000000000000000000000000000000000000000000000000000000600052603260045260246000fd5b7f416c726561647920616363657074656400000000000000000000000000000000600082015250565b6000612697601083611d5b565b91506126a282612661565b602082019050919050565b600060208201905081810360008301526126c68161268a565b9050919050565b60006126d882611947565b91506126e383611947565b92508282026126f181611947565b9150828204841483151761270857612707611f69565b5b5092915050565b7f4e487b7100000000000000000000000000000000000000000000000000000000600052601260045260246000fd5b600061274982611947565b915061275483611947565b9250826127645761276361270f565b5b828204905092915050565b600061277a82611947565b915061278583611947565b925082820190508082111561279d5761279c611f69565b5b92915050565b7f526577617264207472616e73666572206661696c656400000000000000000000600082015250565b60006127d9601683611d5b565b91506127e4826127a3565b602082019050919050565b60006020820190508181036000830152612808816127cc565b9050919050565b7f43616e6e6f7420736c61736820616363657074656420636f6e7472696275746960008201527f6f6e000000000000000000000000000000000000000000000000000000000000602082015250565b600061286b602283611d5b565b91506128768261280f565b604082019050919050565b6000602082019050818103600083015261289a8161285e565b9050919050565b7f536c617368207472616e73666572206661696c65640000000000000000000000600082015250565b60006128d7601583611d5b565b91506128e2826128a1565b602082019050919050565b60006020820190508181036000830152612906816128ca565b9050919050565b7f4e6f74206f776e65720000000000000000000000000000000000000000000000600082015250565b6000612943600983611d5b565b915061294e8261290d565b602082019050919050565b6000602082019050818103600083015261297281612936565b9050919050565b6000815490506129888161200f565b9050919050565b60008190508160005260206000209050919050565b8181036129b2575050612a8a565b6129bb82612979565b67ffffffffffffffff8111156129d4576129d36119aa565b5b6129de825461200f565b6129e9828285612155565b6000601f831160018114612a185760008415612a06578287015490505b612a1085826121c6565b865550612a83565b601f198416612a268761298f565b9650612a3186612040565b60005b82811015612a5957848901548255600182019150600185019450602081019050612a34565b86831015612a765784890154612a72601f8916826121a8565b8355505b6001600288020188555050505b5050505050505b56fea2646970667358221220feef922fa843859f7048a17eac072d3b65c1675bdd5c68d934d3fe178d418c8164736f6c63430008140033",
  "linkReferences": {},
  "deployedLinkReferences": {}
}