{
  "_format": "hh-sol-artifact-1",
  "contractName": "CollabLearn",
  "sourceName": "contracts/CollabLearn.sol",
  "abi": [
    {
      "inputs": [
        {
          "internalType": "address",
          "name": "_eduToken",
          "type": "address"
        },
        {
          "internalType": "address",
          "name": "_nft",
          "type": "address"
        },
        {
          "internalType": "address",
          "name": "initialOwner",
          "type": "address"
        }
      ],
      "stateMutability": "nonpayable",
      "type": "constructor"
    },
    {
      "inputs": [
        {
          "internalType": "address",
          "name": "owner",
          "type": "address"
        }
      ],
      "name": "OwnableInvalidOwner",
      "type": "error"
    },
    {
      "inputs": [
        {
          "internalType": "address",
          "name": "account",
          "type": "address"
        }
      ],
      "name": "OwnableUnauthorizedAccount",
      "type": "error"
    },
    {
      "inputs": [],
      "name": "ReentrancyGuardReentrantCall",
      "type": "error"
    },
    {
      "anonymous": false,
      "inputs": [
        {
          "indexed": true,
          "internalType": "uint256",
          "name": "researchId",
          "type": "uint256"
        },
        {
          "indexed": false,
          "internalType": "address",
          "name": "contributor",
          "type": "address"
        }
      ],
      "name": "ContributionAccepted",
      "type": "event"
    },
    {
      "anonymous": false,
      "inputs": [
        {
          "indexed": true,
          "internalType": "uint256",
          "name": "researchId",
          "type": "uint256"
        },
        {
          "indexed": false,
          "internalType": "address",
          "name": "contributor",
          "type": "address"
        },
        {
          "indexed": false,
          "internalType": "uint256",
          "name": "stakedAmount",
          "type": "uint256"
        }
      ],
      "name": "ContributionSubmitted",
      "type": "event"
    },
    {
      "anonymous": false,
      "inputs": [
        {
          "indexed": true,
          "internalType": "address",
          "name": "previousOwner",
          "type": "address"
        },
        {
          "indexed": true,
          "internalType": "address",
          "name": "newOwner",
          "type": "address"
        }
      ],
      "name": "OwnershipTransferred",
      "type": "event"
    },
    {
      "anonymous": false,
      "inputs": [
        {
          "indexed": true,
          "internalType": "uint256",
          "name": "id",
          "type": "uint256"
        },
        {
          "indexed": false,
          "internalType": "string",
          "name": "title",
          "type": "string"
        },
        {
          "indexed": false,
          "internalType": "address",
          "name": "owner",
          "type": "address"
        },
        {
          "indexed": false,
          "internalType": "uint256",
          "name": "requiredStake",
          "type": "uint256"
        }
      ],
      "name": "ResearchCreated",
      "type": "event"
    },
    {
      "anonymous": false,
      "inputs": [
        {
          "indexed": true,
          "internalType": "uint256",
          "name": "researchId",
          "type": "uint256"
        },
        {
          "indexed": false,
          "internalType": "address",
          "name": "contributor",
          "type": "address"
        },
        {
          "indexed": false,
          "internalType": "uint256",
          "name": "amount",
          "type": "uint256"
        }
      ],
      "name": "StakeReturned",
      "type": "event"
    },
    {
      "anonymous": false,
      "inputs": [
        {
          "indexed": true,
          "internalType": "uint256",
          "name": "researchId",
          "type": "uint256"
        },
        {
          "indexed": false,
          "internalType": "address",
          "name": "contributor",
          "type": "address"
        },
        {
          "indexed": false,
          "internalType": "uint256",
          "name": "amount",
          "type": "uint256"
        }
      ],
      "name": "StakeSlashed",
      "type": "event"
    },
    {
      "inputs": [],
      "name": "MINIMUM_STAKE",
      "outputs": [
        {
          "internalType": "uint256",
          "name": "",
          "type": "uint256"
        }
      ],
      "stateMutability": "view",
      "type": "function"
    },
    {
      "inputs": [
        {
          "internalType": "uint256",
          "name": "_researchId",
          "type": "uint256"
        },
        {
          "internalType": "uint256",
          "name": "_contributionId",
          "type": "uint256"
        }
      ],
      "name": "acceptContribution",
      "outputs": [],
      "stateMutability": "nonpayable",
      "type": "function"
    },
    {
      "inputs": [
        {
          "internalType": "uint256",
          "name": "",
          "type": "uint256"
        },
        {
          "internalType": "uint256",
          "name": "",
          "type": "uint256"
        }
      ],
      "name": "contributions",
      "outputs": [
        {
          "internalType": "address",
          "name": "contributor",
          "type": "address"
        },
        {
          "internalType": "string",
          "name": "ipfsHash",
          "type": "string"
        },
        {
          "internalType": "uint256",
          "name": "timestamp",
          "type": "uint256"
        },
        {
          "internalType": "bool",
          "name": "accepted",
          "type": "bool"
        },
        {
          "internalType": "uint256",
          "name": "votes",
          "type": "uint256"
        },
        {
          "internalType": "uint256",
          "name": "stakedAmount",
          "type": "uint256"
        }
      ],
      "stateMutability": "view",
      "type": "function"
    },
    {
      "inputs": [
        {
          "internalType": "string",
          "name": "_title",
          "type": "string"
        },
        {
          "internalType": "string",
          "name": "_ipfsHash",
          "type": "string"
        },
        {
          "internalType": "uint256",
          "name": "_requiredStake",
          "type": "uint256"
        }
      ],
      "name": "createResearch",
      "outputs": [
        {
          "internalType": "uint256",
          "name": "",
          "type": "uint256"
        }
      ],
      "stateMutability": "nonpayable",
      "type": "function"
    },
    {
      "inputs": [],
      "name": "eduToken",
      "outputs": [
        {
          "internalType": "contract IERC20",
          "name": "",
          "type": "address"
        }
      ],
      "stateMutability": "view",
      "type": "function"
    },
    {
      "inputs": [],
      "name": "nft",
      "outputs": [
        {
          "internalType": "contract ContributionNFT",
          "name": "",
          "type": "address"
        }
      ],
      "stateMutability": "view",
      "type": "function"
    },
    {
      "inputs": [],
      "name": "owner",
      "outputs": [
        {
          "internalType": "address",
          "name": "",
          "type": "address"
        }
      ],
      "stateMutability": "view",
      "type": "function"
    },
    {
      "inputs": [],
      "name": "renounceOwnership",
      "outputs": [],
      "stateMutability": "nonpayable",
      "type": "function"
    },
    {
      "inputs": [
        {
          "internalType": "address",
          "name": "",
          "type": "address"
        }
      ],
      "name": "reputationScores",
      "outputs": [
        {
          "internalType": "uint256",
          "name": "",
          "type": "uint256"
        }
      ],
      "stateMutability": "view",
      "type": "function"
    },
    {
      "inputs": [],
      "name": "researchCount",
      "outputs": [
        {
          "internalType": "uint256",
          "name": "",
          "type": "uint256"
        }
      ],
      "stateMutability": "view",
      "type": "function"
    },
    {
      "inputs": [
        {
          "internalType": "uint256",
          "name": "",
          "type": "uint256"
        }
      ],
      "name": "researches",
      "outputs": [
        {
          "internalType": "string",
          "name": "title",
          "type": "string"
        },
        {
          "internalType": "string",
          "name": "ipfsHash",
          "type": "string"
        },
        {
          "internalType": "address",
          "name": "owner",
          "type": "address"
        },
        {
          "internalType": "bool",
          "name": "isActive",
          "type": "bool"
        },
        {
          "internalType": "uint256",
          "name": "contributorCount",
          "type": "uint256"
        },
        {
          "internalType": "uint256",
          "name": "citationCount",
          "type": "uint256"
        },
        {
          "internalType": "uint256",
          "name": "requiredStake",
          "type": "uint256"
        },
        {
          "internalType": "uint256",
          "name": "currentVersion",
          "type": "uint256"
        }
      ],
      "stateMutability": "view",
      "type": "function"
    },
    {
      "inputs": [
        {
          "internalType": "uint256",
          "name": "_researchId",
          "type": "uint256"
        },
        {
          "internalType": "uint256",
          "name": "_contributionId",
          "type": "uint256"
        }
      ],
      "name": "slashStake",
      "outputs": [],
      "stateMutability": "nonpayable",
      "type": "function"
    },
    {
      "inputs": [
        {
          "internalType": "uint256",
          "name": "_researchId",
          "type": "uint256"
        },
        {
          "internalType": "string",
          "name": "_ipfsHash",
          "type": "string"
        }
      ],
      "name": "submitContribution",
      "outputs": [],
      "stateMutability": "nonpayable",
      "type": "function"
    },
    {
      "inputs": [
        {
          "internalType": "address",
          "name": "newOwner",
          "type": "address"
        }
      ],
      "name": "transferOwnership",
      "outputs": [],
      "stateMutability": "nonpayable",
      "type": "function"
    },
    {
      "inputs": [
        {
          "internalType": "uint256",
          "name": "_researchId",
          "type": "uint256"
        },
        {
          "internalType": "string",
          "name": "_newIpfsHash",
          "type": "string"
        }
      ],
      "name": "updateResearchVersion",
      "outputs": [],
      "stateMutability": "nonpayable",
      "type": "function"
    },
    {
      "inputs": [
        {
          "internalType": "uint256",
          "name": "_researchId",
          "type": "uint256"
        },
        {
          "internalType": "uint256",
          "name": "_contributionId",
          "type": "uint256"
        }
      ],
      "name": "voteOnContribution",
      "outputs": [],
      "stateMutability": "nonpayable",
      "type": "function"
    }
  ],
  "bytecode": "0x60806040523480156200001157600080fd5b5060405162002b9638038062002b9683398181016040528101906200003791906200027f565b80600073ffffffffffffffffffffffffffffffffffffffff168173ffffffffffffffffffffffffffffffffffffffff1603620000ad5760006040517f1e4fbdf7000000000000000000000000000000000000000000000000000000008152600401620000a49190620002ec565b60405180910390fd5b620000be816200015160201b60201c565b506001808190555082600260006101000a81548173ffffffffffffffffffffffffffffffffffffffff021916908373ffffffffffffffffffffffffffffffffffffffff16021790555081600360006101000a81548173ffffffffffffffffffffffffffffffffffffffff021916908373ffffffffffffffffffffffffffffffffffffffff16021790555050505062000309565b60008060009054906101000a900473ffffffffffffffffffffffffffffffffffffffff169050816000806101000a81548173ffffffffffffffffffffffffffffffffffffffff021916908373ffffffffffffffffffffffffffffffffffffffff1602179055508173ffffffffffffffffffffffffffffffffffffffff168173ffffffffffffffffffffffffffffffffffffffff167f8be0079c531659141344cd1fd0a4f28419497f9722a3daafe3b4186f6b6457e060405160405180910390a35050565b600080fd5b600073ffffffffffffffffffffffffffffffffffffffff82169050919050565b600062000247826200021a565b9050919050565b62000259816200023a565b81146200026557600080fd5b50565b60008151905062000279816200024e565b92915050565b6000806000606084860312156200029b576200029a62000215565b5b6000620002ab8682870162000268565b9350506020620002be8682870162000268565b9250506040620002d18682870162000268565b9150509250925092565b620002e6816200023a565b82525050565b6000602082019050620003036000830184620002db565b92915050565b61287d80620003196000396000f3fe608060405234801561001057600080fd5b50600436106101005760003560e01c80638d87888911610097578063cf3841af11610066578063cf3841af14610295578063f2fde38b146102b1578063fdb6ff8c146102cd578063fe0438b2146102e957610100565b80638d878889146102215780638da5cb5b1461023f5780639a4f049a1461025d578063c29ee3991461027957610100565b80635f7d0704116100d35780635f7d07041461018d578063620d744d146101c4578063715018a6146101e2578063830e28f6146101ec57610100565b806308dbbb03146101055780630f963925146101235780632d778a9e1461015357806347ccca021461016f575b600080fd5b61010d610319565b60405161011a91906117a1565b60405180910390f35b61013d60048036038101906101389190611942565b610323565b60405161014a91906117a1565b60405180910390f35b61016d600480360381019061016891906119cd565b61047e565b005b610177610815565b6040516101849190611aa8565b60405180910390f35b6101a760048036038101906101a29190611ac3565b61083b565b6040516101bb989796959493929190611bab565b60405180910390f35b6101cc6109c0565b6040516101d991906117a1565b60405180910390f35b6101ea6109c6565b005b61020660048036038101906102019190611c37565b6109da565b60405161021896959493929190611c77565b60405180910390f35b610229610ae8565b6040516102369190611d00565b60405180910390f35b610247610b0e565b6040516102549190611d1b565b60405180910390f35b61027760048036038101906102729190611c37565b610b37565b005b610293600480360381019061028e9190611c37565b610c52565b005b6102af60048036038101906102aa9190611c37565b61116c565b005b6102cb60048036038101906102c69190611d62565b611444565b005b6102e760048036038101906102e291906119cd565b6114ca565b005b61030360048036038101906102fe9190611d62565b6115ce565b60405161031091906117a1565b60405180910390f35b6509184e72a00081565b60006509184e72a000821161036d576040517f08c379a000000000000000000000000000000000000000000000000000000000815260040161036490611ddb565b60405180910390fd5b60006007600081548092919061038290611e2a565b9190505590506000600460008381526020019081526020016000209050858160000190816103b09190612074565b50848160010190816103c29190612074565b50338160020160006101000a81548173ffffffffffffffffffffffffffffffffffffffff021916908373ffffffffffffffffffffffffffffffffffffffff16021790555060018160020160146101000a81548160ff02191690831515021790555060018160090181905550838160050181905550817f35e81114e6210529b9d0af61aeb16431219416aa84f82404dbef04080dd59f7487338760405161046a93929190612146565b60405180910390a281925050509392505050565b6104866115e6565b60006004600084815260200190815260200160002090508060020160149054906101000a900460ff166104ee576040517f08c379a00000000000000000000000000000000000000000000000000000000081526004016104e5906121d0565b60405180910390fd5b8060060160003373ffffffffffffffffffffffffffffffffffffffff1673ffffffffffffffffffffffffffffffffffffffff16815260200190815260200160002060009054906101000a900460ff161561057d576040517f08c379a00000000000000000000000000000000000000000000000000000000081526004016105749061223c565b60405180910390fd5b600081600501549050600260009054906101000a900473ffffffffffffffffffffffffffffffffffffffff1673ffffffffffffffffffffffffffffffffffffffff166323b872dd3330846040518463ffffffff1660e01b81526004016105e59392919061225c565b6020604051808303816000875af1158015610604573d6000803e3d6000fd5b505050506040513d601f19601f8201168201806040525081019061062891906122bf565b610667576040517f08c379a000000000000000000000000000000000000000000000000000000000815260040161065e90612338565b60405180910390fd5b808260080160003373ffffffffffffffffffffffffffffffffffffffff1673ffffffffffffffffffffffffffffffffffffffff16815260200190815260200160002081905550600560008581526020019081526020016000206040518060c001604052803373ffffffffffffffffffffffffffffffffffffffff1681526020018581526020014281526020016000151581526020016000815260200183815250908060018154018082558091505060019003906000526020600020906006020160009091909190915060008201518160000160006101000a81548173ffffffffffffffffffffffffffffffffffffffff021916908373ffffffffffffffffffffffffffffffffffffffff160217905550602082015181600101908161078c9190612074565b506040820151816002015560608201518160030160006101000a81548160ff0219169083151502179055506080820151816004015560a082015181600501555050837fea7f3c98b2d3c7432438a2f4b0baa136ff77bf5c6a9171fc7814e185fcc36ec733836040516107ff929190612358565b60405180910390a2505061081161162c565b5050565b600360009054906101000a900473ffffffffffffffffffffffffffffffffffffffff1681565b600460205280600052604060002060009150905080600001805461085e90611ea1565b80601f016020809104026020016040519081016040528092919081815260200182805461088a90611ea1565b80156108d75780601f106108ac576101008083540402835291602001916108d7565b820191906000526020600020905b8154815290600101906020018083116108ba57829003601f168201915b5050505050908060010180546108ec90611ea1565b80601f016020809104026020016040519081016040528092919081815260200182805461091890611ea1565b80156109655780601f1061093a57610100808354040283529160200191610965565b820191906000526020600020905b81548152906001019060200180831161094857829003601f168201915b5050505050908060020160009054906101000a900473ffffffffffffffffffffffffffffffffffffffff16908060020160149054906101000a900460ff16908060030154908060040154908060050154908060090154905088565b60075481565b6109ce611635565b6109d860006116bc565b565b600560205281600052604060002081815481106109f657600080fd5b9060005260206000209060060201600091509150508060000160009054906101000a900473ffffffffffffffffffffffffffffffffffffffff1690806001018054610a4090611ea1565b80601f0160208091040260200160405190810160405280929190818152602001828054610a6c90611ea1565b8015610ab95780601f10610a8e57610100808354040283529160200191610ab9565b820191906000526020600020905b815481529060010190602001808311610a9c57829003601f168201915b5050505050908060020154908060030160009054906101000a900460ff16908060040154908060050154905086565b600260009054906101000a900473ffffffffffffffffffffffffffffffffffffffff1681565b60008060009054906101000a900473ffffffffffffffffffffffffffffffffffffffff16905090565b6000600660003373ffffffffffffffffffffffffffffffffffffffff1673ffffffffffffffffffffffffffffffffffffffff1681526020019081526020016000205411610bb9576040517f08c379a0000000000000000000000000000000000000000000000000000000008152600401610bb0906123cd565b60405180910390fd5b600560008381526020019081526020016000208181548110610bde57610bdd6123ed565b5b90600052602060002090600602016004016000815480929190610c0090611e2a565b91905055506003600560008481526020019081526020016000208281548110610c2c57610c2b6123ed565b5b90600052602060002090600602016004015410610c4e57610c4d8282610c52565b5b5050565b610c5a6115e6565b60006004600084815260200190815260200160002090506000600560008581526020019081526020016000208381548110610c9857610c976123ed565b5b906000526020600020906006020190508060030160009054906101000a900460ff1615610cfa576040517f08c379a0000000000000000000000000000000000000000000000000000000008152600401610cf190612468565b60405180910390fd5b60018160030160006101000a81548160ff02191690831515021790555060018260060160008360000160009054906101000a900473ffffffffffffffffffffffffffffffffffffffff1673ffffffffffffffffffffffffffffffffffffffff1673ffffffffffffffffffffffffffffffffffffffff16815260200190815260200160002060006101000a81548160ff021916908315150217905550816003016000815480929190610daa90611e2a565b919050555060008260080160008360000160009054906101000a900473ffffffffffffffffffffffffffffffffffffffff1673ffffffffffffffffffffffffffffffffffffffff1673ffffffffffffffffffffffffffffffffffffffff16815260200190815260200160002054905060006064600a83610e2a9190612488565b610e3491906124f9565b9050600260009054906101000a900473ffffffffffffffffffffffffffffffffffffffff1673ffffffffffffffffffffffffffffffffffffffff1663a9059cbb8460000160009054906101000a900473ffffffffffffffffffffffffffffffffffffffff168385610ea5919061252a565b6040518363ffffffff1660e01b8152600401610ec2929190612358565b6020604051808303816000875af1158015610ee1573d6000803e3d6000fd5b505050506040513d601f19601f82011682018060405250810190610f0591906122bf565b610f44576040517f08c379a0000000000000000000000000000000000000000000000000000000008152600401610f3b906125aa565b60405180910390fd5b6064600660008560000160009054906101000a900473ffffffffffffffffffffffffffffffffffffffff1673ffffffffffffffffffffffffffffffffffffffff1673ffffffffffffffffffffffffffffffffffffffff1681526020019081526020016000206000828254610fb8919061252a565b92505081905550600583600401541061109757600360009054906101000a900473ffffffffffffffffffffffffffffffffffffffff1673ffffffffffffffffffffffffffffffffffffffff166340c10f198460000160009054906101000a900473ffffffffffffffffffffffffffffffffffffffff16876103e88a61103d9190612488565b611047919061252a565b6040518363ffffffff1660e01b8152600401611064929190612358565b600060405180830381600087803b15801561107e57600080fd5b505af1158015611092573d6000803e3d6000fd5b505050505b857f183c300514091cc04ebfd1f62a97ec10b073e70240d24da7d443deded08ea4a28460000160009054906101000a900473ffffffffffffffffffffffffffffffffffffffff166040516110eb9190611d1b565b60405180910390a2857f0d736493ece6b7d52e34dd028d3d9d0aa75de37339f3da6b3514e70e231ed2a58460000160009054906101000a900473ffffffffffffffffffffffffffffffffffffffff168385611146919061252a565b604051611154929190612358565b60405180910390a25050505061116861162c565b5050565b611174611635565b61117c6115e6565b600060046000848152602001908152602001600020905060006005600085815260200190815260200160002083815481106111ba576111b96123ed565b5b906000526020600020906006020190508060030160009054906101000a900460ff161561121c576040517f08c379a00000000000000000000000000000000000000000000000000000000081526004016112139061263c565b60405180910390fd5b60008260080160008360000160009054906101000a900473ffffffffffffffffffffffffffffffffffffffff1673ffffffffffffffffffffffffffffffffffffffff1673ffffffffffffffffffffffffffffffffffffffff16815260200190815260200160002054905060008360080160008460000160009054906101000a900473ffffffffffffffffffffffffffffffffffffffff1673ffffffffffffffffffffffffffffffffffffffff1673ffffffffffffffffffffffffffffffffffffffff16815260200190815260200160002081905550600260009054906101000a900473ffffffffffffffffffffffffffffffffffffffff1673ffffffffffffffffffffffffffffffffffffffff1663a9059cbb611337610b0e565b836040518363ffffffff1660e01b8152600401611355929190612358565b6020604051808303816000875af1158015611374573d6000803e3d6000fd5b505050506040513d601f19601f8201168201806040525081019061139891906122bf565b6113d7576040517f08c379a00000000000000000000000000000000000000000000000000000000081526004016113ce906126a8565b60405180910390fd5b847fba00be99b4ba100b19f2c080160ab22c2b8f4d62027d6524c532e7578d7a43b48360000160009054906101000a900473ffffffffffffffffffffffffffffffffffffffff168360405161142d929190612358565b60405180910390a250505061144061162c565b5050565b61144c611635565b600073ffffffffffffffffffffffffffffffffffffffff168173ffffffffffffffffffffffffffffffffffffffff16036114be5760006040517f1e4fbdf70000000000000000000000000000000000000000000000000000000081526004016114b59190611d1b565b60405180910390fd5b6114c7816116bc565b50565b60006004600084815260200190815260200160002090508060020160009054906101000a900473ffffffffffffffffffffffffffffffffffffffff1673ffffffffffffffffffffffffffffffffffffffff163373ffffffffffffffffffffffffffffffffffffffff1614611573576040517f08c379a000000000000000000000000000000000000000000000000000000000815260040161156a90612714565b60405180910390fd5b8060010181600701600083600901548152602001908152602001600020908161159c919061275f565b508060090160008154809291906115b290611e2a565b9190505550818160010190816115c89190612074565b50505050565b60066020528060005260406000206000915090505481565b600260015403611622576040517f3ee5aeb500000000000000000000000000000000000000000000000000000000815260040160405180910390fd5b6002600181905550565b60018081905550565b61163d611780565b73ffffffffffffffffffffffffffffffffffffffff1661165b610b0e565b73ffffffffffffffffffffffffffffffffffffffff16146116ba5761167e611780565b6040517f118cdaa70000000000000000000000000000000000000000000000000000000081526004016116b19190611d1b565b60405180910390fd5b565b60008060009054906101000a900473ffffffffffffffffffffffffffffffffffffffff169050816000806101000a81548173ffffffffffffffffffffffffffffffffffffffff021916908373ffffffffffffffffffffffffffffffffffffffff1602179055508173ffffffffffffffffffffffffffffffffffffffff168173ffffffffffffffffffffffffffffffffffffffff167f8be0079c531659141344cd1fd0a4f28419497f9722a3daafe3b4186f6b6457e060405160405180910390a35050565b600033905090565b6000819050919050565b61179b81611788565b82525050565b60006020820190506117b66000830184611792565b92915050565b6000604051905090565b600080fd5b600080fd5b600080fd5b600080fd5b6000601f19601f8301169050919050565b7f4e487b7100000000000000000000000000000000000000000000000000000000600052604160045260246000fd5b611823826117da565b810181811067ffffffffffffffff82111715611842576118416117eb565b5b80604052505050565b60006118556117bc565b9050611861828261181a565b919050565b600067ffffffffffffffff821115611881576118806117eb565b5b61188a826117da565b9050602081019050919050565b82818337600083830152505050565b60006118b96118b484611866565b61184b565b9050828152602081018484840111156118d5576118d46117d5565b5b6118e0848285611897565b509392505050565b600082601f8301126118fd576118fc6117d0565b5b813561190d8482602086016118a6565b91505092915050565b61191f81611788565b811461192a57600080fd5b50565b60008135905061193c81611916565b92915050565b60008060006060848603121561195b5761195a6117c6565b5b600084013567ffffffffffffffff811115611979576119786117cb565b5b611985868287016118e8565b935050602084013567ffffffffffffffff8111156119a6576119a56117cb565b5b6119b2868287016118e8565b92505060406119c38682870161192d565b9150509250925092565b600080604083850312156119e4576119e36117c6565b5b60006119f28582860161192d565b925050602083013567ffffffffffffffff811115611a1357611a126117cb565b5b611a1f858286016118e8565b9150509250929050565b600073ffffffffffffffffffffffffffffffffffffffff82169050919050565b6000819050919050565b6000611a6e611a69611a6484611a29565b611a49565b611a29565b9050919050565b6000611a8082611a53565b9050919050565b6000611a9282611a75565b9050919050565b611aa281611a87565b82525050565b6000602082019050611abd6000830184611a99565b92915050565b600060208284031215611ad957611ad86117c6565b5b6000611ae78482850161192d565b91505092915050565b600081519050919050565b600082825260208201905092915050565b60005b83811015611b2a578082015181840152602081019050611b0f565b60008484015250505050565b6000611b4182611af0565b611b4b8185611afb565b9350611b5b818560208601611b0c565b611b64816117da565b840191505092915050565b6000611b7a82611a29565b9050919050565b611b8a81611b6f565b82525050565b60008115159050919050565b611ba581611b90565b82525050565b6000610100820190508181036000830152611bc6818b611b36565b90508181036020830152611bda818a611b36565b9050611be96040830189611b81565b611bf66060830188611b9c565b611c036080830187611792565b611c1060a0830186611792565b611c1d60c0830185611792565b611c2a60e0830184611792565b9998505050505050505050565b60008060408385031215611c4e57611c4d6117c6565b5b6000611c5c8582860161192d565b9250506020611c6d8582860161192d565b9150509250929050565b600060c082019050611c8c6000830189611b81565b8181036020830152611c9e8188611b36565b9050611cad6040830187611792565b611cba6060830186611b9c565b611cc76080830185611792565b611cd460a0830184611792565b979650505050505050565b6000611cea82611a75565b9050919050565b611cfa81611cdf565b82525050565b6000602082019050611d156000830184611cf1565b92915050565b6000602082019050611d306000830184611b81565b92915050565b611d3f81611b6f565b8114611d4a57600080fd5b50565b600081359050611d5c81611d36565b92915050565b600060208284031215611d7857611d776117c6565b5b6000611d8684828501611d4d565b91505092915050565b7f5374616b6520746f6f206c6f7700000000000000000000000000000000000000600082015250565b6000611dc5600d83611afb565b9150611dd082611d8f565b602082019050919050565b60006020820190508181036000830152611df481611db8565b9050919050565b7f4e487b7100000000000000000000000000000000000000000000000000000000600052601160045260246000fd5b6000611e3582611788565b91507fffffffffffffffffffffffffffffffffffffffffffffffffffffffffffffffff8203611e6757611e66611dfb565b5b600182019050919050565b7f4e487b7100000000000000000000000000000000000000000000000000000000600052602260045260246000fd5b60006002820490506001821680611eb957607f821691505b602082108103611ecc57611ecb611e72565b5b50919050565b60008190508160005260206000209050919050565b60006020601f8301049050919050565b600082821b905092915050565b600060088302611f347fffffffffffffffffffffffffffffffffffffffffffffffffffffffffffffffff82611ef7565b611f3e8683611ef7565b95508019841693508086168417925050509392505050565b6000611f71611f6c611f6784611788565b611a49565b611788565b9050919050565b6000819050919050565b611f8b83611f56565b611f9f611f9782611f78565b848454611f04565b825550505050565b600090565b611fb4611fa7565b611fbf818484611f82565b505050565b5b81811015611fe357611fd8600082611fac565b600181019050611fc5565b5050565b601f82111561202857611ff981611ed2565b61200284611ee7565b81016020851015612011578190505b61202561201d85611ee7565b830182611fc4565b50505b505050565b600082821c905092915050565b600061204b6000198460080261202d565b1980831691505092915050565b6000612064838361203a565b9150826002028217905092915050565b61207d82611af0565b67ffffffffffffffff811115612096576120956117eb565b5b6120a08254611ea1565b6120ab828285611fe7565b600060209050601f8311600181146120de57600084156120cc578287015190505b6120d68582612058565b86555061213e565b601f1984166120ec86611ed2565b60005b82811015612114578489015182556001820191506020850194506020810190506120ef565b86831015612131578489015161212d601f89168261203a565b8355505b6001600288020188555050505b505050505050565b600060608201905081810360008301526121608186611b36565b905061216f6020830185611b81565b61217c6040830184611792565b949350505050565b7f5265736561726368206e6f742061637469766500000000000000000000000000600082015250565b60006121ba601383611afb565b91506121c582612184565b602082019050919050565b600060208201905081810360008301526121e9816121ad565b9050919050565b7f416c726561647920636f6e747269627574656400000000000000000000000000600082015250565b6000612226601383611afb565b9150612231826121f0565b602082019050919050565b6000602082019050818103600083015261225581612219565b9050919050565b60006060820190506122716000830186611b81565b61227e6020830185611b81565b61228b6040830184611792565b949350505050565b61229c81611b90565b81146122a757600080fd5b50565b6000815190506122b981612293565b92915050565b6000602082840312156122d5576122d46117c6565b5b60006122e3848285016122aa565b91505092915050565b7f5374616b65207472616e73666572206661696c65640000000000000000000000600082015250565b6000612322601583611afb565b915061232d826122ec565b602082019050919050565b6000602082019050818103600083015261235181612315565b9050919050565b600060408201905061236d6000830185611b81565b61237a6020830184611792565b9392505050565b7f4e6f2072657075746174696f6e20746f20766f74650000000000000000000000600082015250565b60006123b7601583611afb565b91506123c282612381565b602082019050919050565b600060208201905081810360008301526123e6816123aa565b9050919050565b7f4e487b7100000000000000000000000000000000000000000000000000000000600052603260045260246000fd5b7f416c726561647920616363657074656400000000000000000000000000000000600082015250565b6000612452601083611afb565b915061245d8261241c565b602082019050919050565b6000602082019050818103600083015261248181612445565b9050919050565b600061249382611788565b915061249e83611788565b92508282026124ac81611788565b915082820484148315176124c3576124c2611dfb565b5b5092915050565b7f4e487b7100000000000000000000000000000000000000000000000000000000600052601260045260246000fd5b600061250482611788565b915061250f83611788565b92508261251f5761251e6124ca565b5b828204905092915050565b600061253582611788565b915061254083611788565b925082820190508082111561255857612557611dfb565b5b92915050565b7f526577617264207472616e73666572206661696c656400000000000000000000600082015250565b6000612594601683611afb565b915061259f8261255e565b602082019050919050565b600060208201905081810360008301526125c381612587565b9050919050565b7f43616e6e6f7420736c61736820616363657074656420636f6e7472696275746960008201527f6f6e000000000000000000000000000000000000000000000000000000000000602082015250565b6000612626602283611afb565b9150612631826125ca565b604082019050919050565b6000602082019050818103600083015261265581612619565b9050919050565b7f536c617368207472616e73666572206661696c65640000000000000000000000600082015250565b6000612692601583611afb565b915061269d8261265c565b602082019050919050565b600060208201905081810360008301526126c181612685565b9050919050565b7f4e6f74206f776e65720000000000000000000000000000000000000000000000600082015250565b60006126fe600983611afb565b9150612709826126c8565b602082019050919050565b6000602082019050818103600083015261272d816126f1565b9050919050565b60008154905061274381611ea1565b9050919050565b60008190508160005260206000209050919050565b81810361276d575050612845565b61277682612734565b67ffffffffffffffff81111561278f5761278e6117eb565b5b6127998254611ea1565b6127a4828285611fe7565b6000601f8311600181146127d357600084156127c1578287015490505b6127cb8582612058565b86555061283e565b601f1984166127e18761274a565b96506127ec86611ed2565b60005b82811015612814578489015482556001820191506001850194506020810190506127ef565b86831015612831578489015461282d601f89168261203a565b8355505b6001600288020188555050505b5050505050505b56fea26469706673582212205a8fa2bff7925f60497306d2ab60eca0af4aad13c3d9365a5882a4b67ce34acd64736f6c63430008140033",
  "linkReferences": {},
  "deployedLinkReferences": {}
}