{
  "_format": "hh-sol-artifact-1",
  "contractName": "CollabLearn",
  "sourceName": "contracts/CollabLearn.sol",
  "abi": [
    {
      "inputs": [
        {
          "internalType": "address",
          "name": "_eduToken",
          "type": "address"
        },
        {
          "internalType": "address",
          "name": "_nft",
          "type": "address"
        },
        {
          "internalType": "address",
          "name": "initialOwner",
          "type": "address"
        }
      ],
      "stateMutability": "nonpayable",
      "type": "constructor"
    },
    {
      "inputs": [
        {
          "internalType": "address",
          "name": "owner",
          "type": "address"
        }
      ],
      "name": "OwnableInvalidOwner",
      "type": "error"
    },
    {
      "inputs": [
        {
          "internalType": "address",
          "name": "account",
          "type": "address"
        }
      ],
      "name": "OwnableUnauthorizedAccount",
      "type": "error"
    },
    {
      "inputs": [],
      "name": "ReentrancyGuardReentrantCall",
      "type": "error"
    },
    {
      "anonymous": false,
      "inputs": [
        {
          "indexed": true,
          "internalType": "address",
          "name": "previousOwner",
          "type": "address"
        },
        {
          "indexed": true,
          "internalType": "address",
          "name": "newOwner",
          "type": "address"
        }
      ],
      "name": "OwnershipTransferred",
      "type": "event"
    },
    {
      "anonymous": false,
      "inputs": [
        {
          "indexed": true,
          "internalType": "uint256",
          "name": "id",
          "type": "uint256"
        },
        {
          "indexed": false,
          "internalType": "string",
          "name": "title",
          "type": "string"
        },
        {
          "indexed": false,
          "internalType": "address",
          "name": "owner",
          "type": "address"
        },
        {
          "indexed": false,
          "internalType": "uint256",
          "name": "requiredStake",
          "type": "uint256"
        }
      ],
      "name": "ResearchCreated",
      "type": "event"
    },
    {
      "anonymous": false,
      "inputs": [
        {
          "indexed": true,
          "internalType": "address",
          "name": "userAddress",
          "type": "address"
        },
        {
          "indexed": false,
          "internalType": "string",
          "name": "username",
          "type": "string"
        }
      ],
      "name": "UserCreated",
      "type": "event"
    },
    {
      "inputs": [],
      "name": "MINIMUM_STAKE",
      "outputs": [
        {
          "internalType": "uint256",
          "name": "",
          "type": "uint256"
        }
      ],
      "stateMutability": "view",
      "type": "function"
    },
    {
      "inputs": [
        {
          "internalType": "uint256",
          "name": "",
          "type": "uint256"
        },
        {
          "internalType": "uint256",
          "name": "",
          "type": "uint256"
        }
      ],
      "name": "contributions",
      "outputs": [
        {
          "internalType": "address",
          "name": "contributor",
          "type": "address"
        },
        {
          "internalType": "string",
          "name": "ipfsHash",
          "type": "string"
        },
        {
          "internalType": "uint256",
          "name": "timestamp",
          "type": "uint256"
        },
        {
          "internalType": "bool",
          "name": "accepted",
          "type": "bool"
        },
        {
          "internalType": "uint256",
          "name": "votes",
          "type": "uint256"
        },
        {
          "internalType": "uint256",
          "name": "stakedAmount",
          "type": "uint256"
        }
      ],
      "stateMutability": "view",
      "type": "function"
    },
    {
      "inputs": [
        {
          "internalType": "string",
          "name": "_title",
          "type": "string"
        },
        {
          "internalType": "string",
          "name": "_ipfsHash",
          "type": "string"
        },
        {
          "internalType": "uint256",
          "name": "_requiredStake",
          "type": "uint256"
        },
        {
          "internalType": "address",
          "name": "_owner",
          "type": "address"
        }
      ],
      "name": "createResearch",
      "outputs": [
        {
          "internalType": "uint256",
          "name": "",
          "type": "uint256"
        }
      ],
      "stateMutability": "nonpayable",
      "type": "function"
    },
    {
      "inputs": [
        {
          "internalType": "string",
          "name": "_username",
          "type": "string"
        }
      ],
      "name": "createUser",
      "outputs": [],
      "stateMutability": "nonpayable",
      "type": "function"
    },
    {
      "inputs": [],
      "name": "eduToken",
      "outputs": [
        {
          "internalType": "contract IERC20",
          "name": "",
          "type": "address"
        }
      ],
      "stateMutability": "view",
      "type": "function"
    },
    {
      "inputs": [],
      "name": "getAllResearches",
      "outputs": [
        {
          "components": [
            {
              "internalType": "uint256",
              "name": "id",
              "type": "uint256"
            },
            {
              "internalType": "string",
              "name": "title",
              "type": "string"
            },
            {
              "internalType": "string",
              "name": "ipfsHash",
              "type": "string"
            },
            {
              "internalType": "address",
              "name": "owner",
              "type": "address"
            },
            {
              "internalType": "bool",
              "name": "isActive",
              "type": "bool"
            },
            {
              "internalType": "uint256",
              "name": "contributorCount",
              "type": "uint256"
            },
            {
              "internalType": "uint256",
              "name": "citationCount",
              "type": "uint256"
            },
            {
              "internalType": "uint256",
              "name": "requiredStake",
              "type": "uint256"
            },
            {
              "internalType": "uint256",
              "name": "currentVersion",
              "type": "uint256"
            }
          ],
          "internalType": "struct CollabLearn.ResearchInfo[]",
          "name": "",
          "type": "tuple[]"
        }
      ],
      "stateMutability": "view",
      "type": "function"
    },
    {
      "inputs": [
        {
          "internalType": "address",
          "name": "_owner",
          "type": "address"
        }
      ],
      "name": "getResearchesByOwner",
      "outputs": [
        {
          "components": [
            {
              "internalType": "uint256",
              "name": "id",
              "type": "uint256"
            },
            {
              "internalType": "string",
              "name": "title",
              "type": "string"
            },
            {
              "internalType": "string",
              "name": "ipfsHash",
              "type": "string"
            },
            {
              "internalType": "address",
              "name": "owner",
              "type": "address"
            },
            {
              "internalType": "bool",
              "name": "isActive",
              "type": "bool"
            },
            {
              "internalType": "uint256",
              "name": "contributorCount",
              "type": "uint256"
            },
            {
              "internalType": "uint256",
              "name": "citationCount",
              "type": "uint256"
            },
            {
              "internalType": "uint256",
              "name": "requiredStake",
              "type": "uint256"
            },
            {
              "internalType": "uint256",
              "name": "currentVersion",
              "type": "uint256"
            }
          ],
          "internalType": "struct CollabLearn.ResearchInfo[]",
          "name": "",
          "type": "tuple[]"
        }
      ],
      "stateMutability": "view",
      "type": "function"
    },
    {
      "inputs": [],
      "name": "nft",
      "outputs": [
        {
          "internalType": "contract ContributionNFT",
          "name": "",
          "type": "address"
        }
      ],
      "stateMutability": "view",
      "type": "function"
    },
    {
      "inputs": [],
      "name": "owner",
      "outputs": [
        {
          "internalType": "address",
          "name": "",
          "type": "address"
        }
      ],
      "stateMutability": "view",
      "type": "function"
    },
    {
      "inputs": [],
      "name": "renounceOwnership",
      "outputs": [],
      "stateMutability": "nonpayable",
      "type": "function"
    },
    {
      "inputs": [
        {
          "internalType": "address",
          "name": "",
          "type": "address"
        }
      ],
      "name": "reputationScores",
      "outputs": [
        {
          "internalType": "uint256",
          "name": "",
          "type": "uint256"
        }
      ],
      "stateMutability": "view",
      "type": "function"
    },
    {
      "inputs": [],
      "name": "researchCount",
      "outputs": [
        {
          "internalType": "uint256",
          "name": "",
          "type": "uint256"
        }
      ],
      "stateMutability": "view",
      "type": "function"
    },
    {
      "inputs": [
        {
          "internalType": "uint256",
          "name": "",
          "type": "uint256"
        }
      ],
      "name": "researches",
      "outputs": [
        {
          "internalType": "string",
          "name": "title",
          "type": "string"
        },
        {
          "internalType": "string",
          "name": "ipfsHash",
          "type": "string"
        },
        {
          "internalType": "address",
          "name": "owner",
          "type": "address"
        },
        {
          "internalType": "bool",
          "name": "isActive",
          "type": "bool"
        },
        {
          "internalType": "uint256",
          "name": "contributorCount",
          "type": "uint256"
        },
        {
          "internalType": "uint256",
          "name": "citationCount",
          "type": "uint256"
        },
        {
          "internalType": "uint256",
          "name": "requiredStake",
          "type": "uint256"
        },
        {
          "internalType": "uint256",
          "name": "currentVersion",
          "type": "uint256"
        }
      ],
      "stateMutability": "view",
      "type": "function"
    },
    {
      "inputs": [
        {
          "internalType": "address",
          "name": "newOwner",
          "type": "address"
        }
      ],
      "name": "transferOwnership",
      "outputs": [],
      "stateMutability": "nonpayable",
      "type": "function"
    },
    {
      "inputs": [
        {
          "internalType": "address",
          "name": "",
          "type": "address"
        }
      ],
      "name": "users",
      "outputs": [
        {
          "internalType": "address",
          "name": "userAddress",
          "type": "address"
        },
        {
          "internalType": "string",
          "name": "username",
          "type": "string"
        }
      ],
      "stateMutability": "view",
      "type": "function"
    }
  ],
  "bytecode": "0x60806040523480156200001157600080fd5b50604051620023bd380380620023bd83398181016040528101906200003791906200027f565b80600073ffffffffffffffffffffffffffffffffffffffff168173ffffffffffffffffffffffffffffffffffffffff1603620000ad5760006040517f1e4fbdf7000000000000000000000000000000000000000000000000000000008152600401620000a49190620002ec565b60405180910390fd5b620000be816200015160201b60201c565b506001808190555082600260006101000a81548173ffffffffffffffffffffffffffffffffffffffff021916908373ffffffffffffffffffffffffffffffffffffffff16021790555081600360006101000a81548173ffffffffffffffffffffffffffffffffffffffff021916908373ffffffffffffffffffffffffffffffffffffffff16021790555050505062000309565b60008060009054906101000a900473ffffffffffffffffffffffffffffffffffffffff169050816000806101000a81548173ffffffffffffffffffffffffffffffffffffffff021916908373ffffffffffffffffffffffffffffffffffffffff1602179055508173ffffffffffffffffffffffffffffffffffffffff168173ffffffffffffffffffffffffffffffffffffffff167f8be0079c531659141344cd1fd0a4f28419497f9722a3daafe3b4186f6b6457e060405160405180910390a35050565b600080fd5b600073ffffffffffffffffffffffffffffffffffffffff82169050919050565b600062000247826200021a565b9050919050565b62000259816200023a565b81146200026557600080fd5b50565b60008151905062000279816200024e565b92915050565b6000806000606084860312156200029b576200029a62000215565b5b6000620002ab8682870162000268565b9350506020620002be8682870162000268565b9250506040620002d18682870162000268565b9150509250925092565b620002e6816200023a565b82525050565b6000602082019050620003036000830184620002db565b92915050565b6120a480620003196000396000f3fe608060405234801561001057600080fd5b50600436106100f55760003560e01c8063715018a6116100975780638da5cb5b116100665780638da5cb5b14610282578063a87430ba146102a0578063f2fde38b146102d1578063fe0438b2146102ed576100f5565b8063715018a6146101f5578063830e28f6146101ff57806383f7f186146102345780638d87888914610264576100f5565b806347ccca02116100d357806347ccca0214610166578063507ffba5146101845780635f7d0704146101a0578063620d744d146101d7576100f5565b806308dbbb03146100fa5780632ba08251146101185780632f3f4b9214610148575b600080fd5b61010261031d565b60405161010f919061130a565b60405180910390f35b610132600480360381019061012d9190611509565b610327565b60405161013f919061130a565b60405180910390f35b61015061048b565b60405161015d91906117ee565b60405180910390f35b61016e6106fa565b60405161017b919061186f565b60405180910390f35b61019e6004803603810190610199919061188a565b610720565b005b6101ba60048036038101906101b591906118d3565b610950565b6040516101ce989796959493929190611968565b60405180910390f35b6101df610ad5565b6040516101ec919061130a565b60405180910390f35b6101fd610adb565b005b610219600480360381019061021491906119f4565b610aef565b60405161022b96959493929190611a34565b60405180910390f35b61024e60048036038101906102499190611a9c565b610bfd565b60405161025b91906117ee565b60405180910390f35b61026c610f81565b6040516102799190611aea565b60405180910390f35b61028a610fa7565b6040516102979190611b05565b60405180910390f35b6102ba60048036038101906102b59190611a9c565b610fd0565b6040516102c8929190611b20565b60405180910390f35b6102eb60048036038101906102e69190611a9c565b61109c565b005b61030760048036038101906103029190611a9c565b611122565b604051610314919061130a565b60405180910390f35b6509184e72a00081565b600061033161113a565b6509184e72a0008311610379576040517f08c379a000000000000000000000000000000000000000000000000000000000815260040161037090611b9c565b60405180910390fd5b60006008600081548092919061038e90611beb565b9190505590506000600460008381526020019081526020016000209050868160000190816103bc9190611e35565b50858160010190816103ce9190611e35565b50838160020160006101000a81548173ffffffffffffffffffffffffffffffffffffffff021916908373ffffffffffffffffffffffffffffffffffffffff16021790555060018160020160146101000a81548160ff02191690831515021790555060018160090181905550848160050181905550817f35e81114e6210529b9d0af61aeb16431219416aa84f82404dbef04080dd59f7488868860405161047693929190611f07565b60405180910390a28192505050949350505050565b6060600060085467ffffffffffffffff8111156104ab576104aa611354565b5b6040519080825280602002602001820160405280156104e457816020015b6104d161128d565b8152602001906001900390816104c95790505b50905060005b6008548110156106f257600060046000838152602001908152602001600020905060405180610120016040528083815260200182600001805461052c90611c62565b80601f016020809104026020016040519081016040528092919081815260200182805461055890611c62565b80156105a55780601f1061057a576101008083540402835291602001916105a5565b820191906000526020600020905b81548152906001019060200180831161058857829003601f168201915b505050505081526020018260010180546105be90611c62565b80601f01602080910402602001604051908101604052809291908181526020018280546105ea90611c62565b80156106375780601f1061060c57610100808354040283529160200191610637565b820191906000526020600020905b81548152906001019060200180831161061a57829003601f168201915b505050505081526020018260020160009054906101000a900473ffffffffffffffffffffffffffffffffffffffff1673ffffffffffffffffffffffffffffffffffffffff1681526020018260020160149054906101000a900460ff161515815260200182600301548152602001826004015481526020018260050154815260200182600901548152508383815181106106d3576106d2611f45565b5b60200260200101819052505080806106ea90611beb565b9150506104ea565b508091505090565b600360009054906101000a900473ffffffffffffffffffffffffffffffffffffffff1681565b6000815111610764576040517f08c379a000000000000000000000000000000000000000000000000000000000815260040161075b90611fc0565b60405180910390fd5b600073ffffffffffffffffffffffffffffffffffffffff16600760003373ffffffffffffffffffffffffffffffffffffffff1673ffffffffffffffffffffffffffffffffffffffff16815260200190815260200160002060000160009054906101000a900473ffffffffffffffffffffffffffffffffffffffff1673ffffffffffffffffffffffffffffffffffffffff1614610835576040517f08c379a000000000000000000000000000000000000000000000000000000000815260040161082c9061202c565b60405180910390fd5b60405180604001604052803373ffffffffffffffffffffffffffffffffffffffff16815260200182815250600760003373ffffffffffffffffffffffffffffffffffffffff1673ffffffffffffffffffffffffffffffffffffffff16815260200190815260200160002060008201518160000160006101000a81548173ffffffffffffffffffffffffffffffffffffffff021916908373ffffffffffffffffffffffffffffffffffffffff16021790555060208201518160010190816108fb9190611e35565b509050503373ffffffffffffffffffffffffffffffffffffffff167f9954bce02f72fbdef0fa668ac6f42e434b5829615dac2fb22448054d2359d4f682604051610945919061204c565b60405180910390a250565b600460205280600052604060002060009150905080600001805461097390611c62565b80601f016020809104026020016040519081016040528092919081815260200182805461099f90611c62565b80156109ec5780601f106109c1576101008083540402835291602001916109ec565b820191906000526020600020905b8154815290600101906020018083116109cf57829003601f168201915b505050505090806001018054610a0190611c62565b80601f0160208091040260200160405190810160405280929190818152602001828054610a2d90611c62565b8015610a7a5780601f10610a4f57610100808354040283529160200191610a7a565b820191906000526020600020905b815481529060010190602001808311610a5d57829003601f168201915b5050505050908060020160009054906101000a900473ffffffffffffffffffffffffffffffffffffffff16908060020160149054906101000a900460ff16908060030154908060040154908060050154908060090154905088565b60085481565b610ae361113a565b610aed60006111c1565b565b60056020528160005260406000208181548110610b0b57600080fd5b9060005260206000209060060201600091509150508060000160009054906101000a900473ffffffffffffffffffffffffffffffffffffffff1690806001018054610b5590611c62565b80601f0160208091040260200160405190810160405280929190818152602001828054610b8190611c62565b8015610bce5780601f10610ba357610100808354040283529160200191610bce565b820191906000526020600020905b815481529060010190602001808311610bb157829003601f168201915b5050505050908060020154908060030160009054906101000a900460ff16908060040154908060050154905086565b60606000805b600854811015610c98578373ffffffffffffffffffffffffffffffffffffffff166004600083815260200190815260200160002060020160009054906101000a900473ffffffffffffffffffffffffffffffffffffffff1673ffffffffffffffffffffffffffffffffffffffff1603610c85578180610c8190611beb565b9250505b8080610c9090611beb565b915050610c03565b5060008167ffffffffffffffff811115610cb557610cb4611354565b5b604051908082528060200260200182016040528015610cee57816020015b610cdb61128d565b815260200190600190039081610cd35790505b5090506000805b600854811015610f75578573ffffffffffffffffffffffffffffffffffffffff166004600083815260200190815260200160002060020160009054906101000a900473ffffffffffffffffffffffffffffffffffffffff1673ffffffffffffffffffffffffffffffffffffffff1603610f62576000600460008381526020019081526020016000209050604051806101200160405280838152602001826000018054610da090611c62565b80601f0160208091040260200160405190810160405280929190818152602001828054610dcc90611c62565b8015610e195780601f10610dee57610100808354040283529160200191610e19565b820191906000526020600020905b815481529060010190602001808311610dfc57829003601f168201915b50505050508152602001826001018054610e3290611c62565b80601f0160208091040260200160405190810160405280929190818152602001828054610e5e90611c62565b8015610eab5780601f10610e8057610100808354040283529160200191610eab565b820191906000526020600020905b815481529060010190602001808311610e8e57829003601f168201915b505050505081526020018260020160009054906101000a900473ffffffffffffffffffffffffffffffffffffffff1673ffffffffffffffffffffffffffffffffffffffff1681526020018260020160149054906101000a900460ff16151581526020018260030154815260200182600401548152602001826005015481526020018260090154815250848481518110610f4757610f46611f45565b5b60200260200101819052508280610f5d90611beb565b935050505b8080610f6d90611beb565b915050610cf5565b50819350505050919050565b600260009054906101000a900473ffffffffffffffffffffffffffffffffffffffff1681565b60008060009054906101000a900473ffffffffffffffffffffffffffffffffffffffff16905090565b60076020528060005260406000206000915090508060000160009054906101000a900473ffffffffffffffffffffffffffffffffffffffff169080600101805461101990611c62565b80601f016020809104026020016040519081016040528092919081815260200182805461104590611c62565b80156110925780601f1061106757610100808354040283529160200191611092565b820191906000526020600020905b81548152906001019060200180831161107557829003601f168201915b5050505050905082565b6110a461113a565b600073ffffffffffffffffffffffffffffffffffffffff168173ffffffffffffffffffffffffffffffffffffffff16036111165760006040517f1e4fbdf700000000000000000000000000000000000000000000000000000000815260040161110d9190611b05565b60405180910390fd5b61111f816111c1565b50565b60066020528060005260406000206000915090505481565b611142611285565b73ffffffffffffffffffffffffffffffffffffffff16611160610fa7565b73ffffffffffffffffffffffffffffffffffffffff16146111bf57611183611285565b6040517f118cdaa70000000000000000000000000000000000000000000000000000000081526004016111b69190611b05565b60405180910390fd5b565b60008060009054906101000a900473ffffffffffffffffffffffffffffffffffffffff169050816000806101000a81548173ffffffffffffffffffffffffffffffffffffffff021916908373ffffffffffffffffffffffffffffffffffffffff1602179055508173ffffffffffffffffffffffffffffffffffffffff168173ffffffffffffffffffffffffffffffffffffffff167f8be0079c531659141344cd1fd0a4f28419497f9722a3daafe3b4186f6b6457e060405160405180910390a35050565b600033905090565b604051806101200160405280600081526020016060815260200160608152602001600073ffffffffffffffffffffffffffffffffffffffff168152602001600015158152602001600081526020016000815260200160008152602001600081525090565b6000819050919050565b611304816112f1565b82525050565b600060208201905061131f60008301846112fb565b92915050565b6000604051905090565b600080fd5b600080fd5b600080fd5b600080fd5b6000601f19601f8301169050919050565b7f4e487b7100000000000000000000000000000000000000000000000000000000600052604160045260246000fd5b61138c82611343565b810181811067ffffffffffffffff821117156113ab576113aa611354565b5b80604052505050565b60006113be611325565b90506113ca8282611383565b919050565b600067ffffffffffffffff8211156113ea576113e9611354565b5b6113f382611343565b9050602081019050919050565b82818337600083830152505050565b600061142261141d846113cf565b6113b4565b90508281526020810184848401111561143e5761143d61133e565b5b611449848285611400565b509392505050565b600082601f83011261146657611465611339565b5b813561147684826020860161140f565b91505092915050565b611488816112f1565b811461149357600080fd5b50565b6000813590506114a58161147f565b92915050565b600073ffffffffffffffffffffffffffffffffffffffff82169050919050565b60006114d6826114ab565b9050919050565b6114e6816114cb565b81146114f157600080fd5b50565b600081359050611503816114dd565b92915050565b600080600080608085870312156115235761152261132f565b5b600085013567ffffffffffffffff81111561154157611540611334565b5b61154d87828801611451565b945050602085013567ffffffffffffffff81111561156e5761156d611334565b5b61157a87828801611451565b935050604061158b87828801611496565b925050606061159c878288016114f4565b91505092959194509250565b600081519050919050565b600082825260208201905092915050565b6000819050602082019050919050565b6115dd816112f1565b82525050565b600081519050919050565b600082825260208201905092915050565b60005b8381101561161d578082015181840152602081019050611602565b60008484015250505050565b6000611634826115e3565b61163e81856115ee565b935061164e8185602086016115ff565b61165781611343565b840191505092915050565b61166b816114cb565b82525050565b60008115159050919050565b61168681611671565b82525050565b6000610120830160008301516116a560008601826115d4565b50602083015184820360208601526116bd8282611629565b915050604083015184820360408601526116d78282611629565b91505060608301516116ec6060860182611662565b5060808301516116ff608086018261167d565b5060a083015161171260a08601826115d4565b5060c083015161172560c08601826115d4565b5060e083015161173860e08601826115d4565b5061010083015161174d6101008601826115d4565b508091505092915050565b6000611764838361168c565b905092915050565b6000602082019050919050565b6000611784826115a8565b61178e81856115b3565b9350836020820285016117a0856115c4565b8060005b858110156117dc57848403895281516117bd8582611758565b94506117c88361176c565b925060208a019950506001810190506117a4565b50829750879550505050505092915050565b600060208201905081810360008301526118088184611779565b905092915050565b6000819050919050565b600061183561183061182b846114ab565b611810565b6114ab565b9050919050565b60006118478261181a565b9050919050565b60006118598261183c565b9050919050565b6118698161184e565b82525050565b60006020820190506118846000830184611860565b92915050565b6000602082840312156118a05761189f61132f565b5b600082013567ffffffffffffffff8111156118be576118bd611334565b5b6118ca84828501611451565b91505092915050565b6000602082840312156118e9576118e861132f565b5b60006118f784828501611496565b91505092915050565b600082825260208201905092915050565b600061191c826115e3565b6119268185611900565b93506119368185602086016115ff565b61193f81611343565b840191505092915050565b611953816114cb565b82525050565b61196281611671565b82525050565b6000610100820190508181036000830152611983818b611911565b90508181036020830152611997818a611911565b90506119a6604083018961194a565b6119b36060830188611959565b6119c060808301876112fb565b6119cd60a08301866112fb565b6119da60c08301856112fb565b6119e760e08301846112fb565b9998505050505050505050565b60008060408385031215611a0b57611a0a61132f565b5b6000611a1985828601611496565b9250506020611a2a85828601611496565b9150509250929050565b600060c082019050611a49600083018961194a565b8181036020830152611a5b8188611911565b9050611a6a60408301876112fb565b611a776060830186611959565b611a8460808301856112fb565b611a9160a08301846112fb565b979650505050505050565b600060208284031215611ab257611ab161132f565b5b6000611ac0848285016114f4565b91505092915050565b6000611ad48261183c565b9050919050565b611ae481611ac9565b82525050565b6000602082019050611aff6000830184611adb565b92915050565b6000602082019050611b1a600083018461194a565b92915050565b6000604082019050611b35600083018561194a565b8181036020830152611b478184611911565b90509392505050565b7f5374616b6520746f6f206c6f7700000000000000000000000000000000000000600082015250565b6000611b86600d83611900565b9150611b9182611b50565b602082019050919050565b60006020820190508181036000830152611bb581611b79565b9050919050565b7f4e487b7100000000000000000000000000000000000000000000000000000000600052601160045260246000fd5b6000611bf6826112f1565b91507fffffffffffffffffffffffffffffffffffffffffffffffffffffffffffffffff8203611c2857611c27611bbc565b5b600182019050919050565b7f4e487b7100000000000000000000000000000000000000000000000000000000600052602260045260246000fd5b60006002820490506001821680611c7a57607f821691505b602082108103611c8d57611c8c611c33565b5b50919050565b60008190508160005260206000209050919050565b60006020601f8301049050919050565b600082821b905092915050565b600060088302611cf57fffffffffffffffffffffffffffffffffffffffffffffffffffffffffffffffff82611cb8565b611cff8683611cb8565b95508019841693508086168417925050509392505050565b6000611d32611d2d611d28846112f1565b611810565b6112f1565b9050919050565b6000819050919050565b611d4c83611d17565b611d60611d5882611d39565b848454611cc5565b825550505050565b600090565b611d75611d68565b611d80818484611d43565b505050565b5b81811015611da457611d99600082611d6d565b600181019050611d86565b5050565b601f821115611de957611dba81611c93565b611dc384611ca8565b81016020851015611dd2578190505b611de6611dde85611ca8565b830182611d85565b50505b505050565b600082821c905092915050565b6000611e0c60001984600802611dee565b1980831691505092915050565b6000611e258383611dfb565b9150826002028217905092915050565b611e3e826115e3565b67ffffffffffffffff811115611e5757611e56611354565b5b611e618254611c62565b611e6c828285611da8565b600060209050601f831160018114611e9f5760008415611e8d578287015190505b611e978582611e19565b865550611eff565b601f198416611ead86611c93565b60005b82811015611ed557848901518255600182019150602085019450602081019050611eb0565b86831015611ef25784890151611eee601f891682611dfb565b8355505b6001600288020188555050505b505050505050565b60006060820190508181036000830152611f218186611911565b9050611f30602083018561194a565b611f3d60408301846112fb565b949350505050565b7f4e487b7100000000000000000000000000000000000000000000000000000000600052603260045260246000fd5b7f557365726e616d652063616e6e6f7420626520656d7074790000000000000000600082015250565b6000611faa601883611900565b9150611fb582611f74565b602082019050919050565b60006020820190508181036000830152611fd981611f9d565b9050919050565b7f5573657220616c72656164792065786973747300000000000000000000000000600082015250565b6000612016601383611900565b915061202182611fe0565b602082019050919050565b6000602082019050818103600083015261204581612009565b9050919050565b600060208201905081810360008301526120668184611911565b90509291505056fea26469706673582212208162a93a369509a53bc107afada6cae60c7d7bc5ee3a6a27b7d6ee0b9b13337364736f6c63430008140033",
  "linkReferences": {},
  "deployedLinkReferences": {}
}